:1000000000308A000428000084011F308305831615
:100010001F149F141F159F113F308312A10006303B
:10002000A2005B30A3004F30A4006630A5006D3005
:10003000A6007D30A7000730A8007F30A9006730F8
:10004000AA00003006180130003A031D2C28831640
:100050008801831221088800003086180130003A98
:10006000031D372883168801831222088800003078
:1000700006190130003A031D4228831688018312B5
:1000800023088800003086190130003A031D4D28EE
:10009000831688018312240888000030061A013074
:1000A000003A031D5828831688018312250888000A
:1000B0000030861A0130003A031D63288316880138
:1000C0008312260888000030061B0130003A031D09
:1000D0006E28831688018312270888000030861B4B
:1000E0000130003A031D79288316880183122808FD
:1000F0008800003086180130003A031D8A2800303D
:10010000861B0130003A031D8A288316880183125A
:1001100029088800003006190130003A031D9B2889
:100120000030861B0130003A031D9B28831688018E
:0A01300083122A08880021286300CA
:02400E00F13F80
:00000001FF
;PIC16F877
