:1000000000308A00D62800000A108A100A118207E0
:1000100028340C34013406340A108A100A1182077D
:1000200000340A108A100A1182072A34003425305D
:100030008400000803192B280130F800F701F70BA2
:100040001F28F80B1E284A30F700F70B2528000060
:100050000000800B1C2800342C0EF039F7000F3004
:10006000080577048800000008140000000008104C
:1000700000348810F03083168800831208150000C1
:10008000081400000808080E0F39AC000810000022
:10009000081400000808080E0F39AB0008100030E3
:1000A0008316880083122C0EF700F030F7057708CE
:1000B0002B04F8007808AB00AB1B3A28291C8810E9
:1000C0002918881400000811000008102A0EAB003F
:1000D0000F30AB052B08AC002C202A080F39AB00E1
:1000E000AC002C2000340030831688008312881066
:1000F000081108100F30A50017200130A3002308B5
:10010000033C031C8B280330AC002C200530A500D9
:100110001720A30A7F280230AC002C20A30123085B
:10012000033C031C9C2823080420A400A9012408E4
:10013000AA003920A30A8F288A110A12E228260B66
:10014000A228A5284030A700A628A7010130250233
:10015000A70727088038A800A9012808AA00392085
:10016000003424080C3A0319BC28063A0319C428A1
:10017000023A0319CA28CF28A9010130AA00392060
:100180000230A5001720D5280130A5000230A600B6
:100190009F20D528A9011030AA003920D528013088
:1001A000A9002408AA003920D528003484011F3072
:1001B000830583161F149F141F159F1107309C0081
:1001C00083127328A1012108103C031C4429210833
:1001D000A5000130A6009F20A301230811200038AC
:1001E0000319F628A30AA400B120ED280230A300C9
:1001F000C830A5001720A30BF8282108A50001305E
:10020000A6009F20A30123080C20003803190C2905
:10021000A30AA400B12003290230A300C830A5001E
:100220001720A30B0E290230A1072108A5000330D7
:10023000A6009F20A30123081120003803192429B8
:10024000A30AA400B1201B290230A300C830A500D6
:100250001720A30B26292108A5000330A6009F2004
:10026000A30123080C20003803193A29A30AA4008B
:10027000B12031290230A300C830A5001720A30BFC
:0C0280003C290230A107E328E2286300BB
:02400E00F13F80
:00000001FF
;PIC16F877A
