:1000000000308A00D72800000A108A100A118207DF
:1000100028340C34013406340A108A100A1182077D
:100020002A3400340A108A100A118207203400345E
:1000300024308400000803192C280130F800F7014F
:10004000F70B2028F80B1F284A30F700F70B26285B
:1000500000000000800B1D2800342B0EF039F70043
:100060000F30080577048800000008140000000025
:10007000081000348810F0308316880083120815A9
:100080000000081400000808080E0F39AB00081023
:100090000000081400000808080E0F39AA00081014
:1000A00000308316880083122B0EF700F030F7051E
:1000B00077082A04F8007808AA00AA1B3B28281C05
:1000C0008810281888140000081100000810290E54
:1000D000AA000F30AA052A08AB002D2029080F39E5
:1000E000AA00AB002D200034003083168800831254
:1000F0008810081108100F30A40018200130A20049
:100100002208033C031C8C280330AB002D20053053
:10011000A4001820A20A80280230AB002D20A201E2
:100120002208033C031C9D2822080420A300A801E8
:100130002308A9003A20A20A90288A110A12E1286D
:10014000250BA328A6284030A600A728A601013029
:100150002402A60726088038A700A8012708A900BE
:100160003A20003423080C3A0319BD28063A031933
:10017000C528023A0319CB28D028A8010130A900CC
:100180003A200230A4001820D6280130A400023002
:10019000A500A020D628A8011030A9003A20D62812
:1001A0000130A8002308A9003A20D6280034840191
:1001B0001F30830583161F149F141F159F11831270
:1001C0007428A1012108143C031C14292108A4004F
:1001D0000130A500A020A20122080C20003803193C
:1001E000F528A20AA300B220EC280230A200C830F1
:1001F000A4001820A20BF7282108A4000130A500B4
:10020000A020A20122081220003803190B29A20AFB
:10021000A300B22002290230A200C830A400182096
:0C022000A20B0D29A10AE228E1286300CE
:02400E00F13F80
:00000001FF
;PIC16F877
