:1000000000308A00D72800000A108A100A118207DF
:1000100028340C34013406340A108A100A1182077D
:100020002A3400340A108A100A118207203400345E
:1000300025308400000803192C280130F800F7014E
:10004000F70B2028F80B1F284A30F700F70B26285B
:1000500000000000800B1D2800342C0EF039F70042
:100060000F30080577048800000008140000000025
:10007000081000348810F0308316880083120815A9
:100080000000081400000808080E0F39AC00081022
:100090000000081400000808080E0F39AB00081013
:1000A00000308316880083122C0EF700F030F7051D
:1000B00077082B04F8007808AB00AB1B3B28291C01
:1000C00088102918881400000811000008102A0E52
:1000D000AB000F30AB052B08AC002D202A080F39E0
:1000E000AB00AC002D200034003083168800831252
:1000F0008810081108100F30A50018200130A30047
:100100002308033C031C8C280330AC002D20053051
:10011000A5001820A30A80280230AC002D20A301DE
:100120002308033C031C9D2823080420A400A901E4
:100130002408AA003A20A30A90288A110A12E1286A
:10014000260BA328A6284030A700A728A701013026
:100150002502A70727088038A800A9012808AA00B7
:100160003A20003424080C3A0319BD28063A031932
:10017000C528023A0319CB28D028A9010130AA00CA
:100180003A200230A5001820D6280130A500023000
:10019000A600A020D628A9011030AA003A20D6280F
:1001A0000130A9002408AA003A20D628003484018E
:1001B0001F30830583161F149F141F159F11831270
:1001C0007428A1012108143C031C372901302102A5
:1001D000A300A5000130A600A020A30123080C2045
:1001E00000380319F728A30AA400B220EE28023031
:1001F000A300C830A5001820A30BF9280130210264
:10020000A300A5000130A600A020A301230812200E
:10021000003803190F29A30AA400B22006292108D7
:10022000A5000230A600A020A30123080C2000385E
:1002300003191E29A30AA400B22015290230A30025
:10024000C830A5001820A30B20292108A5000230E2
:10025000A600A020A3012308122000380319342986
:10026000A30AA400B2202B290230A107E228E1282A
:02027000630029
:02400E00F13F80
:00000001FF
;PIC16F877
