:1000000000308A00192800002D30840000080319F0
:1000100016280630F800F701F70B0C28F80B0B2810
:100020007B30F700F70B1228800B09288A110A127F
:10003000472884011F30830583161F149F141F1542
:100040009F113F308312A1000630A2005B30A30055
:100050004F30A4006630A5006D30A6007D30A700AB
:100060000730A8007F30A9006F30AA000930AB002C
:1000700021302B0784000008AC008316880183120E
:100080002C0888000430AC00FA30AD000428AC0B1A
:100090004428AB0338283628831688018312880148
:0200A0006300FB
:02400E00F13F80
:00000001FF
;PIC16F877
