:1000000000308A00192800002D30840000080319F0
:1000100016280630F800F701F70B0C28F80B0B2810
:100020007B30F700F70B1228800B09288A110A127F
:10003000552884011F30830583161F149F141F1534
:100040009F11FF308312A0003F30A1000630A200B4
:100050005B30A3004F30A4006630A5006D30A600D1
:100060007D30A7000730A8007F30A9006F30AA00BC
:10007000AC01003085190130013C031D52282C08C9
:10008000083C03184528AC015228AC0A21302C0743
:1000900084000008AD000030A000831687018312A1
:1000A0002D088700FA30AD00042839280030A00060
:0A00B00083168701831287016300A5
:02400E00F13F80
:00000001FF
;PIC16F877
