:1000000000308A00272800000A108A100A1182078F
:100010003F3406345B344F3466346D347D340734FA
:100020007F346F34223084000008031924280630FE
:10003000F800F701F70B1A28F80B19287B30F700A6
:10004000F70B2028800B17288A110A1287288401B1
:100050001F30830583161F149F141F159F1107302F
:100060009C0001308312A000FF30A10083161F14F2
:100070009F141F159F1183121F1083160912010868
:10008000C73908388100831290010030F8009200CF
:1000900000308316920007309C0005081030F700EE
:1000A000F70B502800001C0883120D1383169D01C6
:1000B000FF3085008600003087008312A100831680
:1000C00088000910891009118501831285018316A2
:1000D000860183128601A100831687013F308312B7
:1000E00087008316880183128801831609108910FE
:1000F0000911831289018316851500308312851931
:100100000130013C031D9D281930A20012288316DE
:1001100085158312851D9D2820080420A20000302B
:10012000A100831687018312220887000130A007EF
:0E0130002008093C03189D28A0017B286300CD
:02400E00393F38
:00000001FF
;PIC16F877A
